:020000040800F2
:10000000000002204D2E0008492D00084B2D00084D
:100010004D2D00084F2D0008512D00080000000054
:10002000000000000000000000000000532D000848
:10003000552D000800000000572D0008592D00081C
:100040009D2E00089D2E00089D2E00089D2E000864
:100050009D2E00089D2E00089D2E00089D2E000854
:100060009D2E00089D2E00089D2E00089D2E000844
:100070009D2E00089D2E00089D2E00089D2E000834
:100080009D2E00089D2E00089D2E00089D2E000824
:100090009D2E00089D2E00089D2E00089D2E000814
:1000A0009D2E00089D2E00089D2E00089D2E000804
:1000B000612D00089D2E00089D2E00089D2E000831
:1000C0009D2E00089D2E00089D2E00089D2E0008E4
:1000D0009D2E00089D2E0008E12D0008F12D00083E
:1000E0009D2E00089D2E00089D2E00089D2E0008C4
:1000F0009D2E00089D2E00089D2E00089D2E0008B4
:100100009D2E00089D2E00089D2E00089D2E0008A3
:100110009D2E00089D2E00089D2E00089D2E000893
:100120009D2E00089D2E00089D2E00089D2E000883
:100130009D2E00089D2E00089D2E00089D2E000873
:100140009D2E00089D2E00089D2E00089D2E000863
:100150009D2E00089D2E00089D2E00089D2E000853
:100160009D2E00089D2E00089D2E00089D2E000843
:100170009D2E00089D2E00089D2E00080000000006
:080180009D2E00089D2E0008D1
:1001880010B5054C237833B9044B13B10448AFF3C9
:1001980000800123237010BD1C0300200000000014
:1001A8006830000808B5034B1BB103490348AFF397
:1001B800008008BD0000000020030020683000080F
:1001C80053B94AB9002908BF00281CBF4FF0FF31B6
:1001D8004FF0FF3000F072B9ADF1080C6DE904CEB4
:1001E80000F006F8DDF804E0DDE9022304B070470A
:1001F8002DE9F047089E04468846002B4BD18A42D9
:10020800154667D9B2FA82F24AB1C2F1200701FA5B
:1002180002F320FA07F7954047EA030894404FEAAB
:10022800154E230CB8FBFEF71FFA85FC0EFB17884A
:1002380043EA084307FB0CF1994209D9EB1807F187
:10024800FF3080F01B81994240F21881023F2B4415
:100258005B1AA4B2B3FBFEF00EFB103344EA03446E
:1002680000FB0CFCA44509D92C1900F1FF3380F0E0
:100278000781A44540F2048102382C4440EA074033
:10028800A4EB0C0400271EB1D4400023C6E90043A8
:100298003946BDE8F0878B4209D9002E00F0EB8083
:1002A8000027C6E9000138463946BDE8F087B3FAA9
:1002B80083F7002F47D18B4202D3824200F2FA80A3
:1002C800841A61EB030301209846002EE0D0C6E9AA
:1002D8000048DDE702B9FFDEB2FA82F2002A40F0F8
:1002E8008F80491B4FEA154E1FFA85F80127B1FB8D
:1002F800FEFC230C0EFB1C1143EA014308FB0CF126
:10030800994207D9EB180CF1FF3002D2994200F25A
:10031800CD808446591AA3B2B1FBFEF00EFB10142F
:1003280043EA044408FB00F8A04507D92C1900F15A
:10033800FF3302D2A04500F2B6801846A4EB0804A9
:1003480040EA0C409FE7C7F1200CBB4022FA0CFEA4
:100358004EEA030E01FA07F420FA0CF521FA0CF321
:100368004FEA1E482543B3FBF8F92C0C08FB193358
:100378001FFA8EFA44EA034309FB0AF49C4202FA84
:1003880007F200FA07F10BD91EEB030309F1FF305E
:1003980080F087809C4240F28480A9F1020973446E
:1003A8001B1BADB2B3FBF8F008FB103345EA03445E
:1003B80000FB0AFAA24508D91EEB040400F1FF333A
:1003C8006BD2A24569D90238744440EA0940A0FBBF
:1003D8000289A4EB0A044C45C2464B4654D351D07B
:1003E800002E69D0B1EB0A0564EB030404FA0CFC97
:1003F800FD40FC404CEA0505C6E90054002747E7E4
:10040800C2F1200320FA03F7954001FA02F021FA1D
:1004180003F34FEA154E3843010CB3FBFEF71FFAFE
:1004280085F80EFB173341EA034107FB08F38B42BB
:1004380004FA02F407D9691807F1FF3C2FD28B425E
:100448002DD9023F2944CB1A81B2B3FBFEF00EFB33
:10045800103341EA034100FB08F38B4207D96918BE
:1004680000F1FF3C17D28B4215D902382944C91A2A
:1004780040EA07473BE73746304609E70746E7E6DD
:100488001846FBE64145ABD2B8EB020A69EB0E020F
:1004980001381346A4E76046E9E7184695E767463A
:1004A800D1E781467CE702382C4447E7ACF1020CDF
:1004B8002B442FE7384608E73746E9E6704700BF80
:1004C80010B504460E4B18784FF47A73B3FBF0F36B
:1004D8000C4A1068B0FBF3F000F032FA68B90F2C40
:1004E80001D901200AE0002221464FF0FF3000F038
:1004F800E7F9034B5C60002000E0012010BD00BF5D
:10050800000000204801002008B50B4B1A6842F48F
:1005180000721A601A6842F480621A601A6842F41B
:1005280080721A60032000F0B9F90020FFF7C8FFB5
:1005380002F0E8FA002008BD003C0240034A1168B6
:10054800034B1B780B441360704700BF5403002013
:1005580000000020014B1868704700BF54030020BA
:1005680038B50446FFF7F6FF0546B4F1FF3F02D061
:10057800044B1B781C44FFF7EDFF401BA042FAD345
:1005880038BD00BF00000020494B5A6822F44032B1
:100598005A605A6841680A435A600268536823F4EB
:1005A8008073536002685368016943EA012353600A
:1005B8000268536823F04073536002685368816887
:1005C8000B4353600268936823F4006393600268E6
:1005D8009368C1680B439360826A364B9A4249D04C
:1005E8000268936823F07063936002689368816A75
:1005F8000B4393600268936823F04053936002684A
:100608009368C16A0B4393600268936823F00203FE
:10061800936002689368816943EA41039360036ABF
:10062800002B32D10268536823F4006353600268D8
:10063800D36A23F47003D3620168CB6AC269013AB2
:1006480043EA0253CB620268936823F40073936011
:1006580002689368016B43EA4123936002689368D8
:1006680023F48063936002689368416943EA8123B5
:10067800936070470268936823F070639360026820
:10068800936823F040539360BEE70268536843F4CD
:10069800006353600268536823F460435360016841
:1006A8004B68426A013A43EA42334B60BFE700BFF6
:1006B800002301400100000F30B310B50446036C5D
:1006C80043B1236C13F0100F0AD00120002384F8E3
:1006D8003C3010BD436480F83C3002F02FFAF0E75C
:1006E800236C23F4885323F0020343F002032364AA
:1006F8002046FFF749FF00206064236C23F00303C2
:1007080043F001032364E1E70120704730B482B06D
:100718000023019390F83C30012B00F0B7800123AF
:1007280080F83C300B68092B3ED90568EA689BB213
:1007380003EB43031E3B072404FA03F322EA0303F3
:10074800EB600568EA688C680B8803EB43031E3B83
:1007580004FA03F31343EB604B68062B3AD8056899
:100768006A6B03EB8303053B1F2404FA03F322EAB5
:1007780003036B6305686A6B4B6803EB8303053BF4
:100788000C8804FA03F313436B630268404B9A42E4
:1007980050D002683E4B9A4255D0002380F83C3036
:1007A800184602B030BC704705682A699BB203EB53
:1007B8004303072404FA03F322EA03032B610568C1
:1007C8002A698C680B8803EB430304FA03F3134389
:1007D8002B61C1E70C2B16D805682A6B03EB830342
:1007E800233B1F2404FA03F322EA03032B6305685F
:1007F8002A6B4B6803EB8303233B0C8804FA03F34F
:1008080013432B63C1E70568EA6A03EB8303413BA3
:100818001F2404FA03F322EA0303EB620568EA6A79
:100828004B6803EB8303413B0C8804FA03F313433F
:10083800EB62AAE70B68122BABD1164A536843F454
:1008480080035360A5E70B68103B012BA5D8114A1C
:10085800536843F4000353600B68102B9DD10E4B73
:100868001B6802F1467202F52E3202F28332A2FBB5
:1008780003239B0C03EB83035A00019202E0019BC4
:10088800013B0193019B002BF9D186E7022088E701
:10089800002001400023014048010020074AD36896
:1008A80023F4E0631B041B0C000200F4E06018430F
:1008B80040F0BF6040F40030D060704700ED00E0C9
:1008C80030B4174BDB68C3F30223C3F10704042CCD
:1008D80028BF04241D1D062D18D9033B4FF0FF35F2
:1008E80005FA04F421EA0401994005FA03F322EA1F
:1008F8000303194300280BDB0901C9B200F160406A
:1009080000F5614080F8001330BC70470023E5E72C
:1009180000F00F000901C9B2024B1954F4E700BFF7
:1009280000ED00E014ED00E000F01F024009012393
:100938009340024A42F82030704700BF00E100E0CF
:100948000138B0F1807F0AD2064B5860064AF02180
:1009580082F823100020986007221A60704701204F
:10096800704700BF10E000E000ED00E090F835307F
:10097800DBB2022B03D08023436501207047052397
:1009880080F835300268136823F0010313600020F3
:100998007047000000230F2B00F2D780F0B482B01C
:1009A80039E0072200E00022B2403A430234674EA1
:1009B80046F82420664A1468EA4302EA04064F68A7
:1009C80017F4803F01D045EA0406614C266064684C
:1009D80002EA04064F6817F4003F01D045EA04060E
:1009E8005B4C6660A46802EA04064F6817F4801F2F
:1009F80001D045EA0406564CA660E46822404E68D9
:100A080016F4001F01D045EA0402514CE26001339C
:100A18000F2B00F2978001229A400C6804EA020525
:100A2800AA42F4D14C68022C01D0122C10D1DE0855
:100A3800083650F826C003F00704A7000F24BC406E
:100A48002CEA040C0C69BC4044EA0C0440F826402B
:100A580004685F000326BE40F64306EA040C4C68AF
:100A680004F00304BC4044EA0C0404604C6804F13C
:100A7800FF3CBCF1010F03D9112C01D0122C10D16D
:100A8800846806EA040CCC68BC4044EA0C04846020
:100A9800446824EA02024C68C4F300149C401443DE
:100AA8004460C26816408A68BA403243C2604A68E5
:100AB80012F0805FABD000220192264A546C44F4B5
:100AC80080445464526C02F480420192019A9C085A
:100AD800A61C1E4A52F8267003F0030296000F2245
:100AE800B24027EA02071C4A90423FF45CAF02F585
:100AF800806290421AD002F58062904218D002F5C6
:100B08008062904216D002F58062904214D002F5BD
:100B18008062904212D002F58062904210D002F5B5
:100B2800806290423FF43DAF08223DE701223BE757
:100B3800022239E7032237E7042235E7052233E7A3
:100B4800062231E702B0F0BC704770470038014018
:100B5800003C01400038024000000240036919428D
:100B680001D1002070470120704712B90904816142
:100B780070478161704703685A6912F4806F0DD01D
:100B88006FF480625A610423036400230363202204
:100B980080F83D2080F83C300120704700207047E5
:100BA800F8B506460C4617461D461EE02DB1FFF760
:100BB800D1FC069BC01AA84217D900233363202210
:100BC80086F83D2086F83E3086F83C3003201AE04F
:100BD80033685B6924EA03039BB2B3FA83F35B09C6
:100BE8009F420FD1B5F1FF3FE0D1C4F30743012B7A
:100BF800EED033689B6924EA03039BB2B3FA83F30C
:100C08005B09EDE70020F8BDF8B504460D46164629
:100C18001F4632E01A6842F400721A6023686FF4C3
:100C280080625A610423236400232363202284F80A
:100C38003D2084F83C3001202DE026B1FFF78AFCE6
:100C4800C01BB04219D900232363202284F83D2019
:100C580084F83C3003201EE023685B6925EA03031F
:100C68009BB2003318BF0123A3B123685A6912F459
:100C7800806FCFD1B6F1FF3FDFD1C5F30743012B1A
:100C8800EAD023689B6925EA03039BB2003318BFA7
:100C98000123E9E70020F8BDF0B583B004460D460E
:100CA80016461F46C36A042B0DD0012B0BD013F533
:100CB800803F08D0036B122B0AD10268136843F4F3
:100CC8008073136004E02268136843F48073136030
:100CD8000097334600224FF001112046FFF760FFCE
:100CE80058BB2369B3F5804F10D1236805F0FE0582
:100CF8001D613B46324615492046FFF785FF0346EE
:100D0800E0B1236C042B1ED1012317E0EB112268FC
:100D180003F0060343F0F00313613B4632460C49E7
:100D28002046FFF771FF20B1236C042B09D1012362
:100D380004E02368EDB21D61DBE70323184603B026
:100D4800F0BD0323FAE70323F8E700BF0200010020
:100D58000800010070B504460D46164623685B6915
:100D680013F0800F19D12046FFF705FFB8B9B5F188
:100D7800FF3FF3D025B1FFF7EDFB801BA842EDD96B
:100D8800236C43F02003236400232363202284F888
:100D98003D2084F83C30032000E0002070BD012095
:100DA800FCE770B504460D46164623685B6913F0E8
:100DB800040F19D12046FFF7DEFEB8B9B5F1FF3FA1
:100DC800F3D025B1FFF7C6FB801BA842EDD9236CF1
:100DD80043F02003236400232363202284F83D206A
:100DE80084F83C30032000E0002070BD0120FCE7BF
:100DF800002800F0828010B5044690F83D30002BA2
:100E080041D0242384F83D302268136823F001037D
:100E1800136000F027FC3A4BA3FB00239B0C2268CD
:100E280053606168374A914232D8013322681362AD
:100E38006368344A934235D85B00B0FBF3F0C0F3E3
:100E48000B03032B00D804202368D861E369216AC7
:100E580022680B4313602369E16822680B4393609F
:100E68006369A16922680B43D3602268136843F061
:100E78000103136000202064202384F83D302063A0
:100E880084F83E0010BD80F83C3001F08BFEB8E7D6
:100E98004FF4967202FB03F31B4AA2FB03239B0940
:100EA8000133C3E7A16889B903EB4302B0FBF2F24F
:100EB800C2F30B02B2FA82F25209E2B991B903EB1A
:100EC8004303B0FBF3F040F40040BDE703EB8302BB
:100ED80002EB8202B0FBF2F2C2F30B02B2FA82F228
:100EE8005209EAE703EB830303EB8303B0FBF3F058
:100EF80040F44040A8E70120A6E70120704700BF62
:100F080083DE1B43A0860100D34D62102DE9F0411A
:100F180084B004460E4690461F46FFF71BFB94F824
:100F28003D30DBB2202B04D00226304604B0BDE8A9
:100F3800F081054600901923012254492046FFF705
:100F48002FFE002840F0998094F83C30012B00F0E7
:100F58009680012384F83C3023681A6812F0010F48
:100F680003D11A6842F001021A602268136823F458
:100F780000631360212384F83D30102384F83E3049
:100F880000232364C4F824806785A3F58033E362D3
:100F9800638D23852B460A9A31462046FFF77CFE4F
:100FA800064660B1236C042B04D1002384F83C303E
:100FB8000126BAE7002384F83C300326B5E700236E
:100FC800039323685A6903929B690393039B10E078
:100FD800236C042B55D12268136843F40073136003
:100FE8000126A2E72A460A992046FFF7DAFE0028DA
:100FF8002BD1238D002B32D02A460A992046FFF7A1
:10100800A9FE0028E4D1636A5A1C626222681B7830
:101018001361638D013B9BB26385238D013B9BB2BA
:1010280023852268516911F0040FDBD0002BD9D039
:10103800636A591C61621B781361638D013B9BB223
:101048006385238D013B2385CCE7236C042B1AD1C0
:101058002268136843F400731360012665E7226869
:10106800136843F400731360202384F83D30002391
:1010780084F83E3084F83C3057E7022655E70226CC
:1010880053E7032651E703264FE700BF020010008D
:10109800002800F0BB8170B582B00446036813F0E5
:1010A800010F3BD0A74B9B6803F00C03042B2CD0FB
:1010B800A44B9B6803F00C03082B21D06368B3F59D
:1010C800803F4FD0B3F5A02F52D09E4B1A6822F420
:1010D80080321A601A6822F480221A606368002B32
:1010E80050D0FFF737FA0546964B1B6813F4003FBC
:1010F80014D1FFF72FFA401B6428F5D903208AE1A1
:10110800904B5B6813F4800FD8D08E4B1B6813F498
:10111800003F03D06368002B00F07A81236813F046
:10112800020F55D0874B9B6813F00C0F3ED0854BB0
:101138009B6803F00C03082B33D0E368002B68D0BE
:10114800814B01221A60FFF705FA05467D4B1B68A3
:1011580013F0020F54D1FFF7FDF9401B0228F5D90F
:10116800032058E1774A136843F480331360B5E7E6
:10117800744B1A6842F480221A601A6842F480326A
:101188001A60ABE7FFF7E6F905466E4B1B6813F4E8
:10119800003FC3D0FFF7DEF9401B6428F5D90320D0
:1011A80039E1684B5B6813F4800FC6D1654B1B6847
:1011B80013F0020F04D0E368012B01D001202AE1CB
:1011C800604A136823F0F803216943EAC1031360F6
:1011D800236813F0080F40D0636963B35B4B0122A7
:1011E8001A60FFF7B7F90546564B5B6F13F0020F0D
:1011F80033D1FFF7AFF9401B0228F5D903200AE1E4
:10120800504A136823F0F803216943EAC1031360C5
:10121800DEE74D4B00221A60FFF79CF90546494B63
:101228001B6813F0020FD3D0FFF794F9401B022874
:10123800F5D90320EFE0454B00221A60FFF78AF941
:101248000546404B5B6F13F0020F06D0FFF782F99B
:10125800401B0228F5D90320DDE0236813F0040FB2
:1012680079D0384B1B6C13F0805F33D10023019386
:10127800344B1A6C42F080521A641B6C03F0805392
:101288000193019B0125324B1B6813F4807F23D007
:10129800A368012B34D0052B38D02A4B1A6F22F0C3
:1012A80001021A671A6F22F004021A67A368002B5A
:1012B80036D0FFF74FF90646224B1B6F13F0020F8B
:1012C80048D1FFF747F9801B41F288339842F3D998
:1012D8000320A0E00025D6E71D4A136843F4807375
:1012E8001360FFF737F90646194B1B6813F4807F24
:1012F800CED1FFF72FF9801B0228F5D903208AE009
:10130800104A136F43F001031367CFE70D4B1A6FB1
:1013180042F004021A671A6F42F001021A67C5E721
:10132800FFF718F90646074B1B6F13F0020F11D091
:10133800FFF710F9801B41F288339842F3D9032054
:1013480069E000BF0038024000004742800E474273
:1013580000700040E5B9A369002B5BD0304A926861
:1013680002F00C02082A58D0022B17D02D4B00226D
:101378001A60FFF7EFF80446294B1B6813F0007F4B
:1013880042D0FFF7E7F8001B0228F5D9032042E016
:10139800234A136C23F080531364DCE7214B0022AB
:1013A8001A60FFF7D7F805461D4B1B6813F0007F3E
:1013B80006D0FFF7CFF8401B0228F5D903202AE012
:1013C800E369226A1343626A43EA8213A26A5208F3
:1013D800013A43EA0243E26A43EA0263104A53606D
:1013E800104B01221A60FFF7B5F804460C4B1B6836
:1013F80013F0007F06D1FFF7ADF8001B0228F5D9DE
:10140800032008E0002006E0002004E001207047E7
:10141800012000E0002002B070BD0120FBE700BF02
:101428000038024060004742324B9B6803F00C03CF
:10143800042B5CD0082B01D02F4870472DE9F04BC6
:101448002C4B5A6802F03F025B6813F4800F2BD0D4
:10145800284B5B68C3F388131E4600275C010025F0
:10146800E41A65EB0705A90141EA9461A001001B94
:1014780061EB0501CB0043EA5073C400A01943EBAC
:1014880007014B0243EAD053440220461946002381
:10149800FEF796FE174B5B68C3F3014301335B000D
:1014A800B0FBF3F0BDE8F08B124B5B68C3F3881315
:1014B8001E4600275C010025E41A65EB0705A90113
:1014C80041EA9461A001001B61EB0501CB0043EAEE
:1014D8005073C400A01943EB07018B0243EA9053F1
:1014E8008402204619460023FEF76AFED2E7034825
:1014F800704700BF003802400024F40000127A0050
:10150800002800F09D8070B504464F4B1B6803F01F
:101518000F038B4209D2CBB24B4A1370136803F006
:101528000F038B4201D0012070BD236813F0020F16
:1015380017D013F0040F04D0444A936843F4E053DF
:101548009360236813F0080F04D0404A936843F46B
:10155800604393603D4A936823F0F003A068034317
:1015680093600D46236813F0010F32D06368012B96
:1015780021D09A1E012A25D9344A126812F0020F86
:1015880060D032498A6822F0030213438B60FEF769
:10159800E1FF06462D4B9B6803F00C036268B3EB32
:1015A800820F16D0FEF7D6FF801B41F2883398428F
:1015B800F0D90320B8E7254A126812F4003FE0D1B9
:1015C8000120B1E7214A126812F0007FD9D1012029
:1015D800AAE71D4B1B6803F00F03AB4209D9EAB217
:1015E800194B1A701B6803F00F03AB4201D001209E
:1015F8009AE7236813F0040F06D0144A936823F47B
:10160800E053E1680B439360236813F0080F07D099
:101618000E4A936823F46043216943EAC103936047
:10162800FFF702FF094B9B68C3F30313084AD35C17
:10163800D840084B18600020FEF742FF002073E7EF
:101648000120704701206FE7003C0240003802404B
:101658008030000848010020014B1868704700BF1F
:101668004801002008B5FFF7F7FF044B9B68C3F358
:101678008223034AD35CD84008BD00BF003802402B
:101688009030000808B5FFF7E7FF044B9B68C3F3E9
:101698004233034AD35CD84008BD00BF003802403B
:1016A8009030000810B4036A046A24F0010404624C
:1016B800846924F0F00444EA021223F00A030B437D
:1016C800826103625DF8044B704710B4036A23F02B
:1016D800100303628469036A24F4704444EA023202
:1016E80023F0A00343EA0113826103625DF8044B0F
:1016F8007047836823F0700341F007011943816044
:10170800704710B4846824F47F4442EA03230B43EF
:10171800234383605DF8044B704790F83830012B01
:101728007DD010B50446012380F83830022380F8B4
:1017380039300268936823F47F4323F0770393607A
:101748000B68402B57D010D9702B3ED01FD8502B88
:1017580047D0602B32D1CA6849680068FFF7B5FFE7
:1017680060212068FFF7C5FF28E0102B4DD008D96D
:10177800202B4FD0302B21D130210068FFF7B9FF43
:101788001CE0DBB900210068FFF7B3FF16E0B3F5F2
:10179800805F0ED0B3F5005F10D1CB684A688968C6
:1017A8000068FFF7AEFF2268936843F480439360B4
:1017B80004E00268936823F007039360012384F828
:1017C8003930002084F8380010BDCB684A68896831
:1017D8000068FFF796FF2268936843F077039360E9
:1017E800ECE7CA6849680068FFF75CFF5021206889
:1017F800FFF77FFFE2E7CA6849680068FFF752FF12
:1018080040212068FFF775FFD8E710210068FFF72F
:1018180070FFD3E720210068FFF76BFFCEE70220B7
:1018280070477047704770477047704710B5044657
:1018380003681A6912F0020F11D0DA6812F0020F69
:101848000DD06FF002021A610123037603689B69C9
:1018580013F0030F70D0FFF7E6FF00232376236809
:101868001A6912F0040F12D0DA6812F0040F0ED0C1
:101878006FF004021A610223237623689B6913F42C
:10188800407F5FD02046FFF7CEFF002323762368F2
:101898001A6912F0080F12D0DA6812F0080F0ED089
:1018A8006FF008021A61042323762368DB6913F0BA
:1018B800030F4ED02046FFF7B6FF00232376236898
:1018C8001A6912F0100F12D0DA6812F0100F0ED049
:1018D8006FF010021A61082323762368DB6913F47A
:1018E800407F3DD02046FFF79EFF002323762368E4
:1018F8001A6912F0010F03D0DA6812F0010F36D11D
:1019080023681A6912F0800F03D0DA6812F0800F8A
:1019180034D123681A6912F0400F03D0DA6812F044
:10192800400F32D123681A6912F0200F03D0DA6809
:1019380012F0200F30D110BDFFF774FF2046FFF7DB
:1019480073FF8AE72046FFF76DFF2046FFF76CFF1D
:101958009BE72046FFF766FF2046FFF765FFACE7E9
:101968002046FFF75FFF2046FFF75EFFBDE76FF0F9
:1019780001021A612046FFF754FFC1E76FF08002A9
:101988001A61204600F0B3F8C3E76FF040021A610D
:101998002046FFF74AFFC5E76FF020021A6120468C
:1019A80000F0A4F8C7E7000003682E4A904212D05E
:1019B800B0F1804F0FD0A2F57C4290420BD002F5D7
:1019C8008062904207D002F58062904203D002F50F
:1019D8007842904203D123F070034A681343214AA6
:1019E80090422AD0B0F1804F27D0A2F57C42904295
:1019F80023D002F5806290421FD002F580629042A7
:101A08001BD002F57842904217D002F570529042EE
:101A180013D002F5806290420FD002F580629042A6
:101A28000BD0A2F59832904207D002F5806290421E
:101A380003D002F58062904203D123F44073CA6850
:101A4800134303608B68C3620B688362054B98423B
:101A580003D003F58063984201D10B690363012326
:101A68004361704700000140A8B110B5044690F8E2
:101A780039305BB1022384F83930211D2068FFF723
:101A880093FF012384F83930002010BD80F83830E6
:101A980001F0C2F8EEE70120704790F83830012BCA
:101AA80022D030B4012280F83820022380F839305F
:101AB8000468636823F070036360046863680D68F2
:101AC8002B4363600468A36823F08003A360046861
:101AD800A36849680B43A36080F83920002380F885
:101AE8003830184630BC704702207047704770473E
:101AF8000268D36823F49073D3600268536923F0B3
:101B080001035361202380F83A30704790F8393048
:101B1800DBB2212B2AD18368B3F5805F16D0036A24
:101B28005A1C02621A7803685A60C38C013B9BB244
:101B3800C384EBB90268D36823F08003D3600268DA
:101B4800D36843F04003D36000207047036A1B88C2
:101B58000268C3F30803536003691BB9036A0233BD
:101B68000362E2E7036A01330362DEE7022070479B
:101B7800002070472DE9F843044601680A6922F4F9
:101B88004052C36813430B610168CA6822F41642C5
:101B980022F00C0283680069034360690343E0692B
:101BA80003431343CB6021684A6922F44072A36956
:101BB80013434B61E369B3F5004F60D02368B84A1B
:101BC800934200F0148102F58062934200F00F8185
:101BD800FFF748FD00EB800000EB80006568AD0072
:101BE800B0FBF5F5AF4FA7FB05356D092E01FFF7E3
:101BF80039FD00EB800000EB80006568AD00B0FBAC
:101C0800F5F9FFF72FFD00EB800000EB8000656819
:101C1800AD00B0FBF5F5A7FB05356D094FF064087D
:101C280008FB15952D013235A7FB05356D0905F023
:101C3800F0053544FFF716FD00EB800000EB80004F
:101C48006668B600B0FBF6F6FFF70CFD00EB800007
:101C580000EB800063689B00B0FBF3F0A7FB00304B
:101C6800400908FB10684FEA081808F13208A7FB7A
:101C78000837C7F3431723682F449F600DE1236893
:101C8800874A93425BD002F58062934257D0FFF7B0
:101C9800E9FC00EB800000EB800065686D00B0FB9C
:101CA800F5F5804FA7FB05356D092E01FFF7DAFC26
:101CB80000EB800000EB800065686D00B0FBF5F973
:101CC800FFF7D0FC00EB800000EB800065686D003A
:101CD800B0FBF5F5A7FB05356D094FF0640808FB67
:101CE8001595ED003235A7FB05356D096D0005F436
:101CF800F8753544FFF7B6FC00EB800000EB800078
:101D080066687600B0FBF6F6FFF7ACFC00EB8000E7
:101D180000EB800063685B00B0FBF3F3A7FB0323D1
:101D28005B0908FB13684FEAC80808F13208A7FBEB
:101D38000837C7F3421723682F449F60ADE0FFF7C9
:101D4800A1FC00EB800000EB800065686D00B0FB33
:101D5800F5F5544FA7FB05356D092E01FFF792FCE9
:101D680000EB800000EB800065686D00B0FBF5F9C2
:101D7800FFF788FC00EB800000EB800065686D00D1
:101D8800B0FBF5F5A7FB05356D094FF0640808FBB6
:101D98001595ED003235A7FB05356D096D0005F485
:101DA800F8753544FFF76EFC00EB800000EB80000F
:101DB80066687600B0FBF6F6FFF764FC00EB80007F
:101DC80000EB800063685B00B0FBF3F3A7FB032321
:101DD8005B0908FB13684FEAC80808F13208A7FB3B
:101DE8000837C7F3421723682F449F6055E0FFF771
:101DF80049FC00EB800000EB80006568AD00B0FB9B
:101E0800F5F5284FA7FB05356D092E01FFF73AFCBC
:101E180000EB800000EB80006568AD00B0FBF5F9D1
:101E2800FFF730FC00EB800000EB80006568AD0038
:101E3800B0FBF5F5A7FB05356D094FF0640808FB05
:101E480015952D013235A7FB05356D0905F0F0050F
:101E58003544FFF717FC00EB800000EB8000666854
:101E6800B600B0FBF6F6FFF70DFC00EB800000EBC8
:101E7800800063689B00B0FBF3F0A7FB00304009CB
:101E880008FB10684FEA081808F13208A7FB083762
:101E9800C7F3431723682F449F60BDE8F88300BF4A
:101EA800001001401F85EB512DE9F04105460F4612
:101EB80016469846069C2B681B6837EA03030CBF36
:101EC80001230023B3421DD1B4F1FF3FF3D02CB15D
:101ED800FEF740FBA0EB0800A042ECD92A68D368C3
:101EE80023F4D073D3602A68536923F00103536144
:101EF800202385F8393085F83A30002385F83830C2
:101F0800032000E00020BDE8F08158B310B5044676
:101F180090F839300BB3242384F839302268D36819
:101F280023F40053D3602046FFF724FE2268136988
:101F380023F4904313612268536923F02A03536101
:101F48002268D36843F40053D3600020E063202361
:101F580084F8393084F83A3010BD80F8383000F011
:101F680079FED8E7012070472DE9F04182B01E467E
:101F780090F83930DBB2202B55D104460D469046F7
:101F8800002955D0002A55D090F83830012B53D06D
:101F9800012380F838300023C363212380F83930C7
:101FA800FEF7D8FA0746A4F82480A4F8268010E0A3
:101FB80000963B46002280212046FFF775FF002847
:101FC8003CD12B882268C3F3080353602369C3B943
:101FD8000235E38C9BB2B3B1E38C013B9BB2E38443
:101FE800A368B3F5805FE3D000963B4600228021CA
:101FF8002046FFF759FF18BB2A7823685A60013535
:10200800E7E70135E5E700963B46002240212046F8
:10201800FFF74AFF0346A8B9202284F83920002296
:1020280084F8382000E00223184602B0BDE8F081A9
:102038000123F9E70123F7E70223F5E70323F3E791
:102048000323F1E70323EFE790F83A30DBB2202BC4
:102058001BD1E1B1EAB190F83830012B1BD0816275
:102068008285C2850023C363222280F83A2080F843
:10207800383001684A6942F001024A610168CA6859
:1020880042F49072CA6018467047022070470120D7
:1020980070470120704702207047704708B50168F3
:1020A800CB6823F04003CB60202380F83930FFF75A
:1020B800F4FF002008BD08B590F83A30DBB2222BB7
:1020C80040D18368B3F5805F0ED0036903BB036812
:1020D8005A68836A591C81621A70C38D013B9BB28E
:1020E800C385F3B100202EE0826A036943B903680F
:1020F8005B68C3F308031380836A02338362ECE7E7
:1021080003685B68DBB21380836A01338362E4E7A8
:1021180003685B68826A511C816203F07F03137055
:10212800DBE70268D36823F49073D36002685369CD
:1021380023F001035361202380F83A3000F0C2FCF9
:10214800002000E0022008BD7047000010B50446DA
:1021580002681368D168526913F00F0005D113F0B3
:10216800200F02D011F0200F53D1002867D012F0B1
:10217800010202D111F4907F61D013F0010F06D053
:1021880011F4807F03D0E06B40F00100E06313F0AE
:10219800040F04D01AB1E06B40F00200E06313F0C2
:1021A800020F04D01AB1E06B40F00400E06313F0B2
:1021B800080F04D01AB1E26B42F00802E263E26B46
:1021C800002A48D013F0200F02D011F0200F24D19C
:1021D80023685B6903F04003E26B12F0080F00D13B
:1021E8003BB32046FFF784FC23685A6912F0400F7E
:1021F8001BD05A6922F040025A61636B8BB11A4AAC
:102208001A65606BFEF7B2FB28B3606B036D9847E5
:1022180021E02046FFF74FFF1DE02046FFF74BFF68
:10222800D6E72046FFF790FF15E02046FFF78CFF22
:1022380011E02046FFF788FF0023E3630BE013F06B
:10224800800F02D011F0800F06D113F0400F02D09A
:1022580011F0400F04D110BD2046FFF757FCFAE7F4
:102268002046FFF71BFFF6E77522000808B5806BCC
:102278000023C385C384FFF767FF08BD00B585B099
:1022880000F0F0030001C0B243F00C028DF80C20FE
:1022980043F008038DF80D3040F00C038DF80E3034
:1022A80040F008008DF80F0064230093042303AA6C
:1022B8004E210348FEF72AFE05B05DF804FB00BF77
:1022C8009C03002000B585B000F0F0030001C0B207
:1022D80043F00D028DF80C2043F009038DF80D3002
:1022E80040F00D038DF80E3040F009008DF80F0016
:1022F80064230093042303AA4E210348FEF706FE35
:1023080005B05DF804FB00BF9C03002010B56420F5
:10231800FEF726F9002407E00320FFF7AFFF2D2082
:10232800FEF71EF90134E4B2022CF5D90220FFF7BA
:10233800A5FF6420FEF714F92820FFF79FFF01206E
:10234800FEF70EF90C20FFF799FF0120FEF708F9B8
:102358008020FFF793FF0120FEF702F910BD10B5AA
:10236800044602E00134FFF7ADFF20780028F9D1D8
:1023780010BD00002DE9F0418AB0002405940694B0
:102388000794089409940094364B1A6B42F0800223
:102398001A631A6B02F080020092009A01941A6B79
:1023A80042F001021A631A6B02F001020192019ACB
:1023B80002941A6B42F002021A631A6B02F00202CC
:1023C8000292029A03941A6B42F004021A631A6B7F
:1023D80002F004020392039A04941A6B42F0080272
:1023E8001A631B6B03F008030493049BDFF88480D3
:1023F800224620214046FEF7B8FB1B4F2246072104
:102408003846FEF7B2FB194E22467E213046FEF7CB
:10241800ACFB20230593012506950794089405A98C
:102428004046FEF7B7FA07230593069507940894E4
:1024380005A93846FEF7AEFA4FF4406305930694B3
:10244800079405A90A48FEF7A5FA7E230593069581
:102458000794089405A93046FEF79CFA0AB0BDE82F
:10246800F08100BF0038024000040240000C024026
:10247800000802400000024008B50948094B036003
:10248800094B436000238360C3604FF480420261BC
:1024980043618361C3610362FEF7AAFC08BD00BF04
:1024A8009C03002000540040A086010008B508489D
:1024B800084B03604FF4E133436000238360C3603B
:1024C80003610C2242618361C361FFF71EFD08BDF1
:1024D800EC0400200044004008B50848084B03609D
:1024E8004FF4E133436000238360C36003610C222F
:1024F80042618361C361FFF708FD08BD5C030020EA
:102508000048004030B587B0002402940394049436
:102518000594009401940E4D4FF080432B604AF2CD
:102528000F436B60AC600B4BEB602C612846FFF7E8
:102538009BFA4FF48053029302A92846FFF7EDF85F
:102548000094019469462846FFF7A7FA07B030BD02
:10255800B00400203F0D030070B584B0002500953D
:102568000195029503950F4C0F4B23604FF4803370
:102578006360A5602561A5612562E5620B4BA362D6
:10258800E5600126E661256366612046FEF794F85A
:1025980000950196029569462046FEF7B7F804B003
:1025A80070BD00BFF4030020002001400100000FAF
:1025B80030B595B03022002108A800F095FC002421
:1025C8000394049405940694079401941B4B1A6C85
:1025D80042F080521A641B6C03F080530193019BF4
:1025E8000294174B1A6842F480421A601B6803F47D
:1025F80080430293029B012308934FF4803309938D
:1026080002250E954FF480030F9304231093A822FC
:1026180011921295139308A8FEF73AFD0F2303931E
:10262800049505944FF4A05306934FF480530793F1
:10263800052103A8FEF764FF15B030BD003802403D
:102648000070004010B5013804280CD8DFE800F00D
:10265800030D05070900042408E0102406E02024DF
:1026680004E0402402E0402400E008240E4B1960F6
:10267800012221460D48FEF778FA0D4B02221A6016
:102688000B4B9B681BB90A4B5B68002BF8D00022E8
:1026980021460648FEF769FA054B01221A6040F206
:1026A800DC50FDF75DFF10BD58030020000C024010
:1026B8003803002038B5FDF727FFFFF779FFFFF74C
:1026C80059FEFFF7D9FEFFF7F1FEFFF705FFFFF709
:1026D80019FFFFF741FFFFF719FE0120FFF7CEFDB5
:1026E8000220FFF7CBFD9648FFF739FEC020FFF721
:1026F800C5FD9448FFF733FE012211469248FEF7C4
:1027080034FA41F28830FDF72BFF0120FFF7B6FDC0
:102718000220FFF7B3FD8D48FFF721FEC020FFF729
:10272800ADFD8B48FFF71BFE8A4C01228A492046E3
:10273800FFF78AFC6423062288492046FFF714FC29
:10274800874BDB68012B0BD0854B9B68012B3BD05B
:10275800834B1B68012BF3D1814B00229A60DBE08D
:102768007F4B9B68002BEFD17D4B0022DA60012064
:10277800FFF784FD0220FFF781FD012276497548A5
:10278800FFF762FC774A784B9A420CD1744B0122CE
:102798001A607648FFF7E3FDC020FFF76FFD744825
:1027A800FFF7DDFDD4E76F4A724B9A42D0D16C4BEC
:1027B80003221A607048FFF7D2FDC020FFF75EFDC4
:1027C8006E48FFF7CCFDC3E74FF400616C48FEF795
:1027D800C5F9012811D1624B00229A601A600221C2
:1027E8005948FEF7C2F90120FFF748FD0220FFF71C
:1027F80045FD6448FFF7B3FDAAE7012202215248CC
:10280800FEF7B3F90120FFF739FD0220FFF736FD87
:10281800534B1B684BB95C48FFF7A1FDC020FFF77D
:102828002DFD5A48FFF79BFD92E7032B90D158489E
:10283800FFF795FDC020FFF721FD5648FFF78FFDF4
:1028480086E7554B01221A600024454B1C6123E0A2
:1028580043480269514DA9540132026101334E4A7D
:1028680013604D4B1B683F4AD15C2E29F0D13C4B7D
:102878001B690133494A0021D154CCB1012C1BD02A
:10288800022C1DD0032C1FD00134354B00221A61B5
:10289800414A1368013313603F4B1A68314B9B5C04
:1028A800642B15D02C2BF3D101323B4B1A60D8E79F
:1028B800104600F0F0FAE7E7384800F0ECFAE3E7F2
:1028C800364800F0E8FADFE7344800F0E4FADBE7DE
:1028D8000120FFF7D3FC0220FFF7D0FC3048FFF7B8
:1028E8003EFDC020FFF7CAFC2E48FFF738FD1C4B01
:1028F80002221A60642307222B491648FFF734FB8B
:10290800174B00225A61012213491248FFF79CFB1A
:10291800134B1B68022B4BD0114BDB68012BF7D1F3
:102928000F4B0022DA600F4B1B78312B89D00A2B12
:1029380087D0642307221D490648FFF715FBDFE708
:1029480098300008A830000800040240BC30000895
:10295800CC300008EC040020F00300200800002020
:10296800380300203C040020E0300008EC30000868
:10297800FC300008043100080C3100081C31000844
:10298800000802402C31000840310008503100088E
:102998006031000870310008A0040020A404002061
:1029A8007C31000890310008100000201800002039
:1029B800012204213848FEF7D8F80122202137489F
:1029C800FEF7D3F8012202213548FEF7CEF80021A0
:1029D8000120FFF737FE334B5B6873B340F6B8311D
:1029E8000520FFF72FFE002202212D48FEF7BDF833
:1029F800002220212948FEF7B8F82A4C0123236039
:102A0800002204212448FEF7B0F8636853BB012074
:102A1800FFF734FC0220FFF731FC2348FFF79FFC47
:102A2800C020FFF72BFC2148FFF799FC64230622FE
:102A38001F492048FFF798FA6EE700210220FFF7A8
:102A480001FE184B5B68002BC8D100210320FFF75B
:102A5800F9FD144B5B68002BC0D100210420FFF75F
:102A6800F1FDBBE70120FFF709FC0220FFF706FC98
:102A78001148FFF774FCC020FFF700FC0F48FFF770
:102A88006EFC64230A220E490A48FFF76DFA054BCB
:102A980000225A6040E700BF0004024000000240E4
:102AA800000C02403803002098310008A0310008CB
:102AB80020000020EC040020AC310008BC310008E4
:102AC8002800002008B50B4B1A780D2A0BD00A49AC
:102AD8004B690A48C25401334B6101220549084831
:102AE800FFF7B2FA08BD044B5A69013A5A6101224C
:102AF800DA60F7E7F0030020380300203C040020E8
:102B0800EC04002082B0002100910B4B5A6C42F477
:102B180080425A645A6C02F480420092009A0191F1
:102B28001A6C42F080521A641B6C03F080530193B4
:102B3800019B02B0704700BF0038024000B589B061
:102B4800002303930493059306930793026803F104
:102B5800804303F590339A4202D009B05DF804FB34
:102B68000021019103F58C335A6C42F480725A6447
:102B78005A6C02F480720192019A02911A6B42F027
:102B880001021A631B6B03F001030293029B0123EA
:102B980003930323049303A90148FDF7FBFEDCE735
:102BA8000000024030B589B00023039304930593D5
:102BB800069307930268154B9A4201D009B030BDBD
:102BC80000250195124C236B43F002032363236B0A
:102BD80003F002030193019BC02303931223049380
:102BE80001230593032306930423079303A90948A4
:102BF800FDF7D0FE0295236C43F400132364236C85
:102C080003F400130293029BD8E700BF005400406E
:102C180000380240000402400368B3F1804F00D03E
:102C2800704700B583B00021019103F50E331A6C8B
:102C380042F001021A641B6C03F001030193019B2B
:102C48000A461C20FDF73CFE1C20FDF76DFE03B074
:102C58005DF804FB10B58AB000230593069307932B
:102C6800089309930368314A934204D0304A934247
:102C78002ED00AB010BD002401942E4B1A6C42F4D9
:102C880000321A641A6C02F400320192019A02941A
:102C98001A6B42F001021A631B6B03F001030293E3
:102CA800029B0C2305930223069301230793032316
:102CB80008930723099305A91F48FDF76BFE2246D1
:102CC80021462620FDF7FCFD2620FDF72DFED0E746
:102CD80000240394174B1A6C42F480221A641A6C6D
:102CE80002F480220392039A04941A6B42F00202BF
:102CF8001A631B6B03F002030493049B4FF44063B5
:102D080005930223069301230793032308930723BC
:102D1800099305A90948FDF73DFE224621462720CB
:102D2800FDF7CEFD2720FDF7FFFDA2E70044004098
:102D38000048004000380240000002400004024001
:102D48007047FEE7FEE7FEE7FEE77047704770470B
:102D580008B5FDF7F3FB08BD08B54FF080421369CD
:102D680023F001031361174A136801331360164AED
:102D78001268A2B9154A12681AB940F6B7318B42DF
:102D880005DC012A07D01248FEF750FD08BD0F4B9D
:102D980001221A60F7E70B4B00221A60F3E7012AB9
:102DA8000CD0022AEFD10B4A12689342EBDB054B99
:102DB80000221A60054B01221A60E4E7014B002249
:102DC8001A60E0E750030020380300204003002089
:102DD800B00400205803002008B50248FFF7B6F9F0
:102DE80008BD00BFEC04002008B50248FFF7AEF9A3
:102DF80008BD00BF5C0300200F49D1F8883043F4B8
:102E08007003C1F888300D4B1A6842F001021A604D
:102E1800002098601A6822F0847222F480321A60C6
:102E2800074A5A601A6822F480221A60D8604FF064
:102E380000638B60704700BF00ED00E0003802407F
:102E480010300024DFF834D0002103E00C4B5B582D
:102E5800435004310B480C4B42189A42F6D30B4AA4
:102E680002E0002342F8043B094B9A42F9D3FFF7EA
:102E7800C3FF00F015F8FFF71DFC704700000220A3
:102E8800E8320008000000201C0300201C0300207A
:102E98002C050020FEE70A22002100F0A9B8000056
:102EA80070B50D4E0D4CA41BA4100025A54209D1E8
:102EB8000B4E0C4C00F0D4F8A41BA4100025A5421E
:102EC80005D170BD56F8253098470135EEE756F81C
:102ED800253098470135F2E7E0320008E032000873
:102EE800E0320008E432000802440346934200D16D
:102EF800704703F8011BF9E72DE9F047804689463A
:102F080092461E460F463D46089815F8014B00F0BC
:102F180085F82044437813F0080332D12D2C32D1A0
:102F28007C78BD1C0122002E5DD0102E09D1302CDA
:102F380007D12B7803F0DF03582B4FD16C7810267C
:102F48000235002A14BF4FF000416FF000410027FE
:102F5800B1FBF6FC384606FB1C1EA4F13003092B16
:102F680017D81C46A64223DD7B1C07D084451CD3FA
:102F780001D1A64519DB00FB0640012715F8014BD6
:102F8800EBE72F46BFE72B2C04BFBD1C7C781A4605
:102F9800C9E7A4F14103192B01D8373CE2E7A4F1B2
:102FA8006103192B04D8573CDCE74FF0FF37E5E7FE
:102FB8007B1C08D12223C8F800300846BAF1000F5C
:102FC80007D1BDE8F08702B14042BAF1000FF8D04E
:102FD8000FB105F1FF39CAF80090F2E73024002E4E
:102FE800AFD10826ADE7302CA3D00A26A9E7000008
:102FF800084B37B51C68084D236A002B08BF2B46C1
:10300800009313460A4601462046FFF775FF03B0B2
:1030180030BD00BF4C010020B0010020D0F8EC000A
:10302800704782B001B901A942B14BB113780B6066
:103038001278101C18BF012002B070471046FBE739
:103048006FF00100F8E749B1FF2A85BF8A230360C2
:103058000A704FF0FF3098BF01207047084670474C
:10306800F8B500BFF8BC08BC9E467047F8B500BF6D
:08307800F8BC08BC9E4670473D
:103080000000000000000000010203040607080918
:103090000000000001020304706C5468616E6B2034
:1030A000796F7520666F72007573696E6720584D71
:1030B00069786572204D617800000000706C547270
:1030C00079696E6720746F20636F6E006E6563743C
:1030D00020746F20496E7465726E65740000000084
:1030E000737563636573730A00000000706C506C45
:1030F000656173652073656C656374006472696EE5
:103100006B7321006661696C0A000000706C4E6F81
:10311000205769466920666F756E64005265636F5B
:103120006E6E656374696E672E2E2E00706C52652C
:10313000636F6E6E656374696E672E2E2E000000DD
:10314000706C57694669206D6F64756C650000008E
:103150006D616C66756E6374696F6E696E67000091
:10316000706C506C6561736520636865636B00000B
:1031700057694669207369676E616C00706C4F72A5
:10318000646572207265636569766564000000009D
:103190004D6978696E670000706C4F7264657200EB
:1031A000636F6D706C65746564210000706C416CB8
:1031B0006D6F73742066756C6C21000053746F70B2
:1031C000206D6978696E6721000000004300504F50
:1031D000534958002E0000202020202020202020AD
:1031E00028282828282020202020202020202020B7
:1031F00020202020202020881010101010101010E7
:10320000101010101010100404040404040404042A
:1032100004101010101010104141414141410101B2
:10322000010101010101010101010101010101018E
:10323000010110101010101042424242424202029C
:10324000020202020202020202020202020202025E
:10325000020210101010200000000000000000000A
:10326000000000000000000000000000000000005E
:10327000000000000000000000000000000000004E
:10328000000000000000000000000000000000003E
:10329000000000000000000000000000000000002E
:1032A000000000000000000000000000000000001E
:1032B000000000000000000000000000000000000E
:1032C00000000000000000000000000000000000FE
:0832D0000000000000000000F6
:0832D80020CFFF7F0100000080
:0432E000AD01000834
:0432E4008901000854
:1032E8000100000010000000696E69740A00000007
:1032F80073746172740A00006572726F720A00005A
:10330800646F6E650A0000006F766572666C6F7791
:103318000A000000492072656365697665643A2091
:1033280000000000206D6C2E0A0000005468652023
:10333800766F6C756D65206F66206472696E6B20A0
:10334800342069733A20000054686520766F6C75E4
:103358006D65206F66206472696E6B203320697317
:103368003A20000054686520766F6C756D65206F93
:1033780066206472696E6B20322069733A200000FF
:1033880054686520766F6C756D65206F6620647271
:10339800696E6B20312069733A20000052656365BD
:1033A8006976696E67206D6573736167652E2E2E69
:1033B8000A0000005570646174696E672064726960
:1033C8006E6B20696E666F726D6174696F6E2E2EFA
:1033D8002E0A0000506C656173652073656C656327
:1033E8007420746865206472696E6B7320776974E1
:1033F8006820746865697220726174696F732E0A37
:10340800000000005468616E6B20796F7520666F4C
:10341800722063686F6F73696E6720584D697865AD
:1034280072204D6178210A000024F4005001002028
:103438000000000000000000000000000000000084
:103448000000000000000000000000000000000074
:103458000000000000000000000000000000000064
:103468000000000000000000000000000000000054
:103478000000000000000000000000000000000044
:103488000000000000000000000000000000000034
:1034980043000000000000000000000000000000E1
:1034A8000000000000000000000000000000000014
:1034B80043000000000000000000000000000000C1
:1034C80000000000000000000000000000000000F4
:1034D80043000000000000000000000000000000A1
:1034E80000000000000000000000000000000000D4
:1034F8004300000000000000000000000000000081
:1035080000000000000000000000000000000000B3
:103518004300000000000000000000000000000060
:103528000000000000000000000000000000000093
:103538004300000000000000000000000000000040
:103548000000000000000000000000000000000073
:103558004300000000000000000000000000000020
:103568000000000000000000000000000000000053
:103578004F3000082B30000800000000D63100084A
:10358800D4310008D5310008D5310008D5310008FC
:10359800D5310008D5310008D5310008D5310008EB
:1035A800D5310008D5310008FFFFFFFFFFFFFFFFFF
:1035B800FFFFFFFFFFFF000001004153434949009F
:1035C80000000000000000000000000000000000F3
:1035D800000000000000000000004153434949007A
:1035E80000000000000000000000000000000000D3
:0C35F800000000000000000000000000C7
:0400000508002E4D74
:00000001FF
